{
  "contractName": "Faucet",
  "abi": [
    {
      "inputs": [],
      "name": "numofFunders",
      "outputs": [
        {
          "internalType": "uint256",
          "name": "",
          "type": "uint256"
        }
      ],
      "stateMutability": "view",
      "type": "function",
      "constant": true
    },
    {
      "inputs": [],
      "name": "owner",
      "outputs": [
        {
          "internalType": "address",
          "name": "",
          "type": "address"
        }
      ],
      "stateMutability": "view",
      "type": "function",
      "constant": true
    },
    {
      "inputs": [],
      "name": "test3",
      "outputs": [
        {
          "internalType": "uint256",
          "name": "",
          "type": "uint256"
        }
      ],
      "stateMutability": "pure",
      "type": "function",
      "constant": true
    },
    {
      "inputs": [],
      "name": "testNumber",
      "outputs": [
        {
          "internalType": "uint256",
          "name": "",
          "type": "uint256"
        }
      ],
      "stateMutability": "view",
      "type": "function",
      "constant": true
    },
    {
      "inputs": [],
      "name": "emitLog",
      "outputs": [
        {
          "internalType": "bytes12",
          "name": "",
          "type": "bytes12"
        }
      ],
      "stateMutability": "pure",
      "type": "function",
      "constant": true
    },
    {
      "inputs": [],
      "name": "addFunds",
      "outputs": [],
      "stateMutability": "payable",
      "type": "function",
      "payable": true
    },
    {
      "inputs": [
        {
          "internalType": "address",
          "name": "newOwner",
          "type": "address"
        }
      ],
      "name": "transferOwnership",
      "outputs": [],
      "stateMutability": "nonpayable",
      "type": "function"
    },
    {
      "inputs": [],
      "name": "test1",
      "outputs": [],
      "stateMutability": "nonpayable",
      "type": "function"
    },
    {
      "inputs": [],
      "name": "test2",
      "outputs": [],
      "stateMutability": "nonpayable",
      "type": "function"
    },
    {
      "inputs": [
        {
          "internalType": "uint256",
          "name": "withdrawAmount",
          "type": "uint256"
        }
      ],
      "name": "withdraw",
      "outputs": [],
      "stateMutability": "nonpayable",
      "type": "function"
    },
    {
      "inputs": [],
      "name": "getAllFunders",
      "outputs": [
        {
          "internalType": "address[]",
          "name": "",
          "type": "address[]"
        }
      ],
      "stateMutability": "view",
      "type": "function",
      "constant": true
    },
    {
      "inputs": [
        {
          "internalType": "uint8",
          "name": "index",
          "type": "uint8"
        }
      ],
      "name": "getFunderAtIndex",
      "outputs": [
        {
          "internalType": "address",
          "name": "",
          "type": "address"
        }
      ],
      "stateMutability": "view",
      "type": "function",
      "constant": true
    }
  ],
  "bytecode": "0x6080604052600060025534801561001557600080fd5b50336000806101000a81548173ffffffffffffffffffffffffffffffffffffffff021916908373ffffffffffffffffffffffffffffffffffffffff1602179055506103e8600181905550610cdc8061006e6000396000f3fe6080604052600436106100a75760003560e01c80636b59084d116100645780636b59084d146101aa5780636fbbb55d146101c15780638da5cb5b146101ec578063a26759cb14610217578063f2fde38b14610221578063f42c13bf1461024a576100a7565b806309095fa4146100ac5780630a8e8e01146100d75780630a93cf33146101025780630d1972f31461013f5780632e1a7d4d1461016a57806366e41cb714610193575b600080fd5b3480156100b857600080fd5b506100c1610275565b6040516100ce91906107d1565b60405180910390f35b3480156100e357600080fd5b506100ec61027b565b6040516100f991906107d1565b60405180910390f35b34801561010e57600080fd5b506101296004803603810190610124919061082a565b610284565b6040516101369190610898565b60405180910390f35b34801561014b57600080fd5b506101546102c4565b60405161016191906107d1565b60405180910390f35b34801561017657600080fd5b50610191600480360381019061018c91906108df565b6102ca565b005b34801561019f57600080fd5b506101a8610361565b005b3480156101b657600080fd5b506101bf6103f1565b005b3480156101cd57600080fd5b506101d6610481565b6040516101e391906109ca565b60405180910390f35b3480156101f857600080fd5b5061020161057b565b60405161020e9190610898565b60405180910390f35b61021f61059f565b005b34801561022d57600080fd5b5061024860048036038101906102439190610a18565b6106bf565b005b34801561025657600080fd5b5061025f610790565b60405161026c9190610a80565b60405180910390f35b60025481565b60006064905090565b6000600460008360ff16815260200190815260200160002060009054906101000a900473ffffffffffffffffffffffffffffffffffffffff169050919050565b60015481565b8067016345785d8a0000811115610316576040517f08c379a000000000000000000000000000000000000000000000000000000000815260040161030d90610b1e565b60405180910390fd5b3373ffffffffffffffffffffffffffffffffffffffff166108fc839081150290604051600060405180830381858888f1935050505015801561035c573d6000803e3d6000fd5b505050565b60008054906101000a900473ffffffffffffffffffffffffffffffffffffffff1673ffffffffffffffffffffffffffffffffffffffff163373ffffffffffffffffffffffffffffffffffffffff16146103ef576040517f08c379a00000000000000000000000000000000000000000000000000000000081526004016103e690610bb0565b60405180910390fd5b565b60008054906101000a900473ffffffffffffffffffffffffffffffffffffffff1673ffffffffffffffffffffffffffffffffffffffff163373ffffffffffffffffffffffffffffffffffffffff161461047f576040517f08c379a000000000000000000000000000000000000000000000000000000000815260040161047690610bb0565b60405180910390fd5b565b6060600060025467ffffffffffffffff8111156104a1576104a0610bd0565b5b6040519080825280602002602001820160405280156104cf5781602001602082028036833780820191505090505b50905060005b600254811015610573576004600082815260200190815260200160002060009054906101000a900473ffffffffffffffffffffffffffffffffffffffff1682828151811061052657610525610bff565b5b602002602001019073ffffffffffffffffffffffffffffffffffffffff16908173ffffffffffffffffffffffffffffffffffffffff1681525050808061056b90610c5d565b9150506104d5565b508091505090565b60008054906101000a900473ffffffffffffffffffffffffffffffffffffffff1681565b6000339050600360008273ffffffffffffffffffffffffffffffffffffffff1673ffffffffffffffffffffffffffffffffffffffff16815260200190815260200160002060009054906101000a900460ff166106bc5760006002600081548092919061060a90610c5d565b9190505590506001600360008473ffffffffffffffffffffffffffffffffffffffff1673ffffffffffffffffffffffffffffffffffffffff16815260200190815260200160002060006101000a81548160ff021916908315150217905550816004600083815260200190815260200160002060006101000a81548173ffffffffffffffffffffffffffffffffffffffff021916908373ffffffffffffffffffffffffffffffffffffffff160217905550505b50565b60008054906101000a900473ffffffffffffffffffffffffffffffffffffffff1673ffffffffffffffffffffffffffffffffffffffff163373ffffffffffffffffffffffffffffffffffffffff161461074d576040517f08c379a000000000000000000000000000000000000000000000000000000000815260040161074490610bb0565b60405180910390fd5b806000806101000a81548173ffffffffffffffffffffffffffffffffffffffff021916908373ffffffffffffffffffffffffffffffffffffffff16021790555050565b60007f48656c6c6f7720776f726c640000000000000000000000000000000000000000905090565b6000819050919050565b6107cb816107b8565b82525050565b60006020820190506107e660008301846107c2565b92915050565b600080fd5b600060ff82169050919050565b610807816107f1565b811461081257600080fd5b50565b600081359050610824816107fe565b92915050565b6000602082840312156108405761083f6107ec565b5b600061084e84828501610815565b91505092915050565b600073ffffffffffffffffffffffffffffffffffffffff82169050919050565b600061088282610857565b9050919050565b61089281610877565b82525050565b60006020820190506108ad6000830184610889565b92915050565b6108bc816107b8565b81146108c757600080fd5b50565b6000813590506108d9816108b3565b92915050565b6000602082840312156108f5576108f46107ec565b5b6000610903848285016108ca565b91505092915050565b600081519050919050565b600082825260208201905092915050565b6000819050602082019050919050565b61094181610877565b82525050565b60006109538383610938565b60208301905092915050565b6000602082019050919050565b60006109778261090c565b6109818185610917565b935061098c83610928565b8060005b838110156109bd5781516109a48882610947565b97506109af8361095f565b925050600181019050610990565b5085935050505092915050565b600060208201905081810360008301526109e4818461096c565b905092915050565b6109f581610877565b8114610a0057600080fd5b50565b600081359050610a12816109ec565b92915050565b600060208284031215610a2e57610a2d6107ec565b5b6000610a3c84828501610a03565b91505092915050565b60007fffffffffffffffffffffffff000000000000000000000000000000000000000082169050919050565b610a7a81610a45565b82525050565b6000602082019050610a956000830184610a71565b92915050565b600082825260208201905092915050565b7f43616e6e6f74207769746864726177206d6f7265207468616e20302e3120657460008201527f6865720000000000000000000000000000000000000000000000000000000000602082015250565b6000610b08602383610a9b565b9150610b1382610aac565b604082019050919050565b60006020820190508181036000830152610b3781610afb565b9050919050565b7f4f6e6c79206f776e65722063616e2063616c6c207468652066756e6374696f6e60008201527f2000000000000000000000000000000000000000000000000000000000000000602082015250565b6000610b9a602183610a9b565b9150610ba582610b3e565b604082019050919050565b60006020820190508181036000830152610bc981610b8d565b9050919050565b7f4e487b7100000000000000000000000000000000000000000000000000000000600052604160045260246000fd5b7f4e487b7100000000000000000000000000000000000000000000000000000000600052603260045260246000fd5b7f4e487b7100000000000000000000000000000000000000000000000000000000600052601160045260246000fd5b6000610c68826107b8565b91507fffffffffffffffffffffffffffffffffffffffffffffffffffffffffffffffff821415610c9b57610c9a610c2e565b5b60018201905091905056fea264697066735822122065b7db656131de4390d1ab2b897b5386a4782e39bdd1b7a2d0248eced6a3993664736f6c634300080b0033",
  "immutableReferences": {},
  "source": "// SPDX-License-Identifier: MIT\r\npragma solidity >=0.4.22 <0.9.0;\r\nimport \"./Owned.sol\";\r\nimport \"./Logger.sol\";\r\nimport \"./IFaucet.sol\";\r\n// contract Faucet{\r\n//     address[] public founders;\r\n    \r\n//     receive() external payable{}\r\n\r\n//     function addFunds() external payable{\r\n//         founders.push(msg.sender);\r\n//     }\r\n\r\n// function getter() view public  returns(address[] memory){\r\n//     return founders;\r\n// }\r\n\r\n// function getFunderAtIndex(uint8 index) external view returns(address){\r\n//     address[] memory _funders = getter();\r\n//     return _funders[index];\r\n// }\r\n\r\n// }\r\n\r\n// //const instance = await Faucet.deployed()//getting access the all the method which is present under the contract\r\n// //instance.addFunds({from:accounts[0],value:\"2\"})\r\n\r\n\r\n//45 Funders mapping\r\n// contract Faucet{\r\n//     uint public numofFunders = 0;\r\n\r\n//     mapping(uint => address) founders;\r\n    \r\n//     receive() external payable{}\r\n\r\n//     function addFunds() external payable{\r\n//         uint index= numofFunders++;\r\n//         founders[index] = msg.sender;\r\n//     }\r\n\r\n// function getFunderAtIndex(uint8 index) external view returns(address){\r\n//     return founders[index];\r\n// }\r\n// }\r\n\r\n//const instance = await Faucet.deployed()//getting access the all the method which is present under the contract\r\n//instance.addFunds({from:accounts[0],value:\"2\"})\r\n\r\n\r\n\r\n// lutFunders\r\n// contract Faucet{\r\n//     uint public numofFunders = 0;\r\n//     mapping(address => bool) private  founders;\r\n//     mapping(uint =>address) private lutFounders;\r\n//     receive() external payable{}\r\n\r\n//     function addFunds() external payable{\r\n//         address funder = msg.sender;\r\n\r\n//         if(!founders[funder]){\r\n//             uint index = numofFunders++;\r\n//             founders[funder] = true;\r\n//             lutFounders[index] = funder;\r\n//         }\r\n//    }\r\n//    function getAllFunders() external view returns(address[] memory){\r\n//        address[] memory _funders = new address[](numofFunders);\r\n//        for(uint i=0;i< numofFunders;i++){\r\n//            _funders[i] = lutFounders[i];\r\n//        }\r\n//        return _funders;\r\n//    }\r\n\r\n// function sta(uint8 index) external view returns(address){\r\n//     return lutFounders[index];\r\n// }\r\n// }\r\n\r\n\r\n\r\n\r\n\r\n//withdraw\r\n// contract Faucet{\r\n//     uint public numofFunders = 0;\r\n//     mapping(address => bool) private  founders;\r\n//     mapping(uint =>address) private lutFounders;\r\n//     receive() external payable{}\r\n\r\n//     function addFunds() external payable{\r\n//         address funder = msg.sender;\r\n\r\n//         if(!founders[funder]){\r\n//             uint index = numofFunders++;\r\n//             founders[funder] = true;\r\n//             lutFounders[index] = funder;\r\n//         }\r\n//    }\r\n\r\n//    function withdraw(uint withdrawAmount) external{\r\n//        if(withdrawAmount < 1000000000000000000){\r\n//        payable(msg.sender).transfer(withdrawAmount);\r\n//    }\r\n//    }\r\n//    function getAllFunders() external view returns(address[] memory){\r\n//        address[] memory _funders = new address[](numofFunders);\r\n//        for(uint i=0;i< numofFunders;i++){\r\n//            _funders[i] = lutFounders[i];\r\n//        }\r\n//        return _funders;\r\n//    }\r\n\r\n// function getFunderAtIndex(uint8 index) external view returns(address){\r\n//     return lutFounders[index];\r\n// }\r\n// }\r\n\r\n//const instance = await Faucet.deployed()\r\n//instance.addFunds({from:accounts[0],value:\"2000000000000000000\"})\r\n//instance.addFunds({from:accounts[1],value:\"2000000000000000000\"})\r\n\r\n//instance.withdraw(\"500000000000000000\",{from:accounts[1]})\r\n//instance.getFunderAtIndex(0)\r\n//instance.getAllFunders()\r\n\r\n\r\n\r\n// //Require\r\n// contract Faucet{\r\n//     uint public numofFunders = 0;\r\n//     mapping(address => bool) private  founders;\r\n//     mapping(uint =>address) private lutFounders;\r\n//     receive() external payable{}\r\n\r\n//     function addFunds() external payable{\r\n//         address funder = msg.sender;\r\n\r\n//         if(!founders[funder]){\r\n//             uint index = numofFunders++;\r\n//             founders[funder] = true;\r\n//             lutFounders[index] = funder;\r\n//         }\r\n//    }\r\n\r\n//    function withdraw(uint withdrawAmount) external{\r\n//        require(withdrawAmount <= 100000000000000000,\"Cannot withdraw more than 0.1 ether\");\r\n   \r\n//        payable(msg.sender).transfer(withdrawAmount);\r\n//    }\r\n//    function getAllFunders() external view returns(address[] memory){\r\n//        address[] memory _funders = new address[](numofFunders);\r\n//        for(uint i=0;i< numofFunders;i++){\r\n//            _funders[i] = lutFounders[i];\r\n//        }\r\n//        return _funders;\r\n//    }\r\n\r\n// function getFunderAtIndex(uint8 index) external view returns(address){\r\n//     return lutFounders[index];\r\n// }\r\n// }\r\n\r\n// //const instance = await Faucet.deployed()\r\n// //instance.addFunds({from:accounts[0],value:\"2000000000000000000\"})\r\n// //instance.addFunds({from:accounts[1],value:\"2000000000000000000\"})\r\n\r\n// //instance.withdraw(\"100000000000000000\",{from:accounts[1]})\r\n// //instance.getFunderAtIndex(0)\r\n// //instance.getAllFunders()\r\n\r\n\r\n\r\n\r\n\r\n// //modifier\r\n// contract Faucet{\r\n//     uint public numofFunders = 0;\r\n//     mapping(address => bool) private  founders;\r\n//     mapping(uint =>address) private lutFounders;\r\n//     receive() external payable{}\r\n\r\n//     modifier limitWithdraw(uint withdrawAmount){\r\n//         require(withdrawAmount <= 100000000000000000,\"Cannot withdraw more than 0.1 ether\");\r\n//     _;\r\n//     }\r\n//     function addFunds() external payable{\r\n//         address funder = msg.sender;\r\n\r\n//         if(!founders[funder]){\r\n//             uint index = numofFunders++;\r\n//             founders[funder] = true;\r\n//             lutFounders[index] = funder;\r\n//         }\r\n//    }\r\n\r\n//    function withdraw(uint withdrawAmount) external limitWithdraw(withdrawAmount){\r\n//        payable(msg.sender).transfer(withdrawAmount);\r\n//    }\r\n//    function getAllFunders() external view returns(address[] memory){\r\n//        address[] memory _funders = new address[](numofFunders);\r\n//        for(uint i=0;i< numofFunders;i++){\r\n//            _funders[i] = lutFounders[i];\r\n//        }\r\n//        return _funders;\r\n//    }\r\n\r\n// function getFunderAtIndex(uint8 index) external view returns(address){\r\n//     return lutFounders[index];\r\n// }\r\n// }\r\n\r\n// //const instance = await Faucet.deployed()\r\n// //instance.addFunds({from:accounts[0],value:\"2000000000000000000\"})\r\n// //instance.addFunds({from:accounts[1],value:\"2000000000000000000\"})\r\n\r\n// //instance.withdraw(\"100000000000000000\",{from:accounts[1]})\r\n// //instance.getFunderAtIndex(0)\r\n// //instance.getAllFunders()\r\n\r\n\r\n\r\n// //onlyowner\r\n// contract Faucet{\r\n\r\n//     address public owner;\r\n//     uint public numofFunders = 0;\r\n//     mapping(address => bool) private  founders;\r\n//     mapping(uint =>address) private lutFounders;\r\n//     receive() external payable{}\r\n\r\n//     constructor(){\r\n//         owner = msg.sender;\r\n//     }\r\n\r\n//     modifier OnlyOwner{\r\n//         require(\r\n//             msg.sender == owner,\r\n//             \"Only owner can call the function \"\r\n//         );\r\n//         _;\r\n//     }\r\n//     modifier limitWithdraw(uint withdrawAmount){\r\n//         require(withdrawAmount <= 100000000000000000,\"Cannot withdraw more than 0.1 ether\");\r\n//     _;\r\n//     }\r\n//     function addFunds() external payable{\r\n//         address funder = msg.sender;\r\n\r\n//         if(!founders[funder]){\r\n//             uint index = numofFunders++;\r\n//             founders[funder] = true;\r\n//             lutFounders[index] = funder;\r\n//         }\r\n//    }\r\n\r\n\r\n//    function transferOwnership(address newOwner) OnlyOwner{\r\n//        owner = newOwner;\r\n//    }\r\n\r\n\r\n\r\n//    function test1() external OnlyOwner{\r\n\r\n//    }//Only owner can call that function\r\n\r\n//    function test2() external OnlyOwner{\r\n\r\n//    }//Only owner can call that function\r\n\r\n//    function withdraw(uint withdrawAmount) external limitWithdraw(withdrawAmount){\r\n//        payable(msg.sender).transfer(withdrawAmount);\r\n//    }\r\n//    function getAllFunders() external view returns(address[] memory){\r\n//        address[] memory _funders = new address[](numofFunders);\r\n//        for(uint i=0;i< numofFunders;i++){\r\n//            _funders[i] = lutFounders[i];\r\n//        }\r\n//        return _funders;\r\n//    }\r\n\r\n// function getFunderAtIndex(uint8 index) external view returns(address){\r\n//     return lutFounders[index];\r\n// }\r\n// }\r\n\r\n// //const instance = await Faucet.deployed()\r\n// //instance.addFunds({from:accounts[0],value:\"2000000000000000000\"})\r\n// //instance.addFunds({from:accounts[1],value:\"2000000000000000000\"})\r\n// //instance.test1({from:accounts[0]})\r\n// //instance.withdraw(\"100000000000000000\",{from:accounts[1]})\r\n// //instance.getFunderAtIndex(0)\r\n// //instance.getAllFunders()\r\n\r\n\r\n// //inheritance\r\n\r\n// contract Faucet is Owned{\r\n//     uint public numofFunders = 0;\r\n//     mapping(address => bool) private  founders;\r\n//     mapping(uint =>address) private lutFounders;\r\n//     receive() external payable{}\r\n\r\n    \r\n\r\n    \r\n//     modifier limitWithdraw(uint withdrawAmount){\r\n//         require(withdrawAmount <= 100000000000000000,\"Cannot withdraw more than 0.1 ether\");\r\n//     _;\r\n//     }\r\n//     function addFunds() external payable{\r\n//         address funder = msg.sender;\r\n\r\n//         if(!founders[funder]){\r\n//             uint index = numofFunders++;\r\n//             founders[funder] = true;\r\n//             lutFounders[index] = funder;\r\n//         }\r\n//    }\r\n\r\n\r\n//    function transferOwnership(address newOwner) external OnlyOwner{\r\n//        owner = newOwner;\r\n//    }\r\n\r\n\r\n\r\n//    function test1() external OnlyOwner{\r\n\r\n//    }//Only owner can call that function\r\n\r\n//    function test2() external OnlyOwner{\r\n\r\n//    }//Only owner can call that function\r\n\r\n//    function withdraw(uint withdrawAmount) external limitWithdraw(withdrawAmount){\r\n//        payable(msg.sender).transfer(withdrawAmount);\r\n//    }\r\n//    function getAllFunders() external view returns(address[] memory){\r\n//        address[] memory _funders = new address[](numofFunders);\r\n//        for(uint i=0;i< numofFunders;i++){\r\n//            _funders[i] = lutFounders[i];\r\n//        }\r\n//        return _funders;\r\n//    }\r\n\r\n// function getFunderAtIndex(uint8 index) external view returns(address){\r\n//     return lutFounders[index];\r\n// }\r\n// }\r\n\r\n// //const instance = await Faucet.deployed()\r\n// //instance.addFunds({from:accounts[0],value:\"2000000000000000000\"})\r\n// //instance.addFunds({from:accounts[1],value:\"2000000000000000000\"})\r\n// //instance.test1({from:accounts[0]})\r\n// //instance.withdraw(\"100000000000000000\",{from:accounts[1]})\r\n// //instance.getFunderAtIndex(0)\r\n// //instance.getAllFunders()\r\n\r\n\r\n// //Abstract\r\n// contract Faucet is Owned,Logger{\r\n//     uint public numofFunders = 0;\r\n//     mapping(address => bool) private  founders;\r\n//     mapping(uint =>address) private lutFounders;\r\n//     receive() external payable{}\r\n\r\n\r\n//     function emitLog() public override pure returns(bytes12){\r\n//         return \"Hellow world\";\r\n//     }\r\n\r\n\r\n    \r\n//     modifier limitWithdraw(uint withdrawAmount){\r\n//         require(withdrawAmount <= 100000000000000000,\"Cannot withdraw more than 0.1 ether\");\r\n//     _;\r\n//     }\r\n//     function addFunds() external payable{\r\n//         address funder = msg.sender;\r\n\r\n//         if(!founders[funder]){\r\n//             uint index = numofFunders++;\r\n//             founders[funder] = true;\r\n//             lutFounders[index] = funder;\r\n//         }\r\n//    }\r\n\r\n\r\n//    function transferOwnership(address newOwner) external OnlyOwner{\r\n//        owner = newOwner;\r\n//    }\r\n\r\n\r\n\r\n//    function test1() external OnlyOwner{\r\n\r\n//    }//Only owner can call that function\r\n\r\n//    function test2() external OnlyOwner{\r\n\r\n//    }//Only owner can call that function\r\n\r\n//    function withdraw(uint withdrawAmount) external limitWithdraw(withdrawAmount){\r\n//        payable(msg.sender).transfer(withdrawAmount);\r\n//    }\r\n//    function getAllFunders() external view returns(address[] memory){\r\n//        address[] memory _funders = new address[](numofFunders);\r\n//        for(uint i=0;i< numofFunders;i++){\r\n//            _funders[i] = lutFounders[i];\r\n//        }\r\n//        return _funders;\r\n//    }\r\n\r\n// function getFunderAtIndex(uint8 index) external view returns(address){\r\n//     return lutFounders[index];\r\n// }\r\n// }\r\n\r\n// //const instance = await Faucet.deployed()\r\n// // instance.emitLog()\r\n// //instance.test3()\r\n// //instance.addFunds({from:accounts[0],value:\"2000000000000000000\"})\r\n// //instance.addFunds({from:accounts[1],value:\"2000000000000000000\"})\r\n// //instance.test1({from:accounts[0]})\r\n// //instance.withdraw(\"100000000000000000\",{from:accounts[1]})\r\n// //instance.getFunderAtIndex(0)\r\n// //instance.getAllFunders()\r\n\r\n\r\n\r\n\r\n\r\n// //Interface\r\n// contract Faucet is Owned,Logger,IFaucet{\r\n//     uint public numofFunders = 0;\r\n//     mapping(address => bool) private  founders;\r\n//     mapping(uint =>address) private lutFounders;\r\n//     receive() external payable{}\r\n\r\n\r\n//     function emitLog() public override pure returns(bytes12){\r\n//         return \"Hellow world\";\r\n//     }\r\n\r\n\r\n    \r\n//     modifier limitWithdraw(uint withdrawAmount){\r\n//         require(withdrawAmount <= 100000000000000000,\"Cannot withdraw more than 0.1 ether\");\r\n//     _;\r\n//     }\r\n//     function addFunds() override external payable{\r\n//         address funder = msg.sender;\r\n\r\n//         if(!founders[funder]){\r\n//             uint index = numofFunders++;\r\n//             founders[funder] = true;\r\n//             lutFounders[index] = funder;\r\n//         }\r\n//    }\r\n\r\n\r\n//    function transferOwnership(address newOwner) external OnlyOwner{\r\n//        owner = newOwner;\r\n//    }\r\n\r\n\r\n\r\n//    function test1() external OnlyOwner{\r\n\r\n//    }//Only owner can call that function\r\n\r\n//    function test2() external OnlyOwner{\r\n\r\n//    }//Only owner can call that function\r\n\r\n//    function withdraw(uint withdrawAmount)  override external limitWithdraw(withdrawAmount){\r\n//        payable(msg.sender).transfer(withdrawAmount);\r\n//    }\r\n//    function getAllFunders() external view returns(address[] memory){\r\n//        address[] memory _funders = new address[](numofFunders);\r\n//        for(uint i=0;i< numofFunders;i++){\r\n//            _funders[i] = lutFounders[i];\r\n//        }\r\n//        return _funders;\r\n//    }\r\n\r\n// function getFunderAtIndex(uint8 index) external view returns(address){\r\n//     return lutFounders[index];\r\n// }\r\n// }\r\n\r\n// //const instance = await Faucet.deployed()\r\n// // instance.emitLog()\r\n// //instance.test3()\r\n// //instance.addFunds({from:accounts[0],value:\"2000000000000000000\"})\r\n// //instance.addFunds({from:accounts[1],value:\"2000000000000000000\"})\r\n// //instance.test1({from:accounts[0]})\r\n// //instance.withdraw(\"100000000000000000\",{from:accounts[1]})\r\n// //instance.getFunderAtIndex(0)\r\n// //instance.getAllFunders()\r\n\r\n\r\n\r\n\r\n//Interface\r\ncontract Faucet is Owned,Logger,IFaucet{\r\n    uint public numofFunders = 0;\r\n    mapping(address => bool) private  founders;\r\n    mapping(uint =>address) private lutFounders;\r\n    // receive() external payable{}\r\n\r\n\r\n    function emitLog() public override pure returns(bytes12){\r\n        return \"Hellow world\";\r\n    }\r\n\r\n\r\n    \r\n    modifier limitWithdraw(uint withdrawAmount){\r\n        require(withdrawAmount <= 100000000000000000,\"Cannot withdraw more than 0.1 ether\");\r\n    _;\r\n    }\r\n    function addFunds() override external payable{\r\n        address funder = msg.sender;\r\n\r\n        if(!founders[funder]){\r\n            uint index = numofFunders++;\r\n            founders[funder] = true;\r\n            lutFounders[index] = funder;\r\n        }\r\n   }\r\n\r\n\r\n   function transferOwnership(address newOwner) external OnlyOwner{\r\n       owner = newOwner;\r\n   }\r\n\r\n\r\n\r\n   function test1() external OnlyOwner{\r\n\r\n   }//Only owner can call that function\r\n\r\n   function test2() external OnlyOwner{\r\n\r\n   }//Only owner can call that function\r\n\r\n   function withdraw(uint withdrawAmount)  override external limitWithdraw(withdrawAmount){\r\n       payable(msg.sender).transfer(withdrawAmount);\r\n   }\r\n   function getAllFunders() external view returns(address[] memory){\r\n       address[] memory _funders = new address[](numofFunders);\r\n       for(uint i=0;i< numofFunders;i++){\r\n           _funders[i] = lutFounders[i];\r\n       }\r\n       return _funders;\r\n   }\r\n\r\nfunction getFunderAtIndex(uint8 index) external view returns(address){\r\n    return lutFounders[index];\r\n}\r\n}\r\n\r\n//const instance = await Faucet.deployed()\r\n// instance.emitLog()\r\n//instance.test3()\r\n//instance.addFunds({from:accounts[0],value:\"2000000000000000000\"})\r\n//instance.addFunds({from:accounts[1],value:\"2000000000000000000\"})\r\n//instance.test1({from:accounts[0]})\r\n//instance.withdraw(\"100000000000000000\",{from:accounts[1]})\r\n//instance.getFunderAtIndex(0)\r\n//instance.getAllFunders()\r\n",
  "sourcePath": "C:\\Users\\admin\\Blockchain\\faucet\\contracts\\Faucet.sol",
  "compiler": {
    "name": "solc",
    "version": "0.8.11+commit.d7f03943.Emscripten.clang"
  },
  "schemaVersion": "3.4.4",
  "updatedAt": "2022-02-09T07:14:15.833Z",
  "networkType": "ethereum",
  "devdoc": {
    "kind": "dev",
    "methods": {},
    "version": 1
  },
  "userdoc": {
    "kind": "user",
    "methods": {},
    "version": 1
  }
}